{
    "contractName": "Freelancer",
    "abi": [
        {
            "inputs": [],
            "stateMutability": "nonpayable",
            "type": "constructor"
        },
        {
            "anonymous": false,
            "inputs": [],
            "name": "transferFunds",
            "type": "event"
        },
        {
            "anonymous": false,
            "inputs": [
                {
                    "components": [
                        {
                            "components": [
                                {
                                    "internalType": "address payable",
                                    "name": "addr",
                                    "type": "address"
                                },
                                {
                                    "internalType": "enum Freelancer.Vote",
                                    "name": "vote",
                                    "type": "uint8"
                                }
                            ],
                            "internalType": "struct Freelancer.Entity",
                            "name": "freelancer",
                            "type": "tuple"
                        },
                        {
                            "components": [
                                {
                                    "internalType": "address payable",
                                    "name": "addr",
                                    "type": "address"
                                },
                                {
                                    "internalType": "enum Freelancer.Vote",
                                    "name": "vote",
                                    "type": "uint8"
                                }
                            ],
                            "internalType": "struct Freelancer.Entity",
                            "name": "client",
                            "type": "tuple"
                        },
                        {
                            "internalType": "string",
                            "name": "description",
                            "type": "string"
                        },
                        {
                            "internalType": "uint256",
                            "name": "value",
                            "type": "uint256"
                        },
                        {
                            "internalType": "enum Freelancer.Status",
                            "name": "status",
                            "type": "uint8"
                        }
                    ],
                    "indexed": false,
                    "internalType": "struct Freelancer.Work",
                    "name": "work",
                    "type": "tuple"
                }
            ],
            "name": "workFunded",
            "type": "event"
        },
        {
            "inputs": [
                {
                    "internalType": "uint256",
                    "name": "_id",
                    "type": "uint256"
                },
                {
                    "internalType": "enum Freelancer.Vote",
                    "name": "vote",
                    "type": "uint8"
                }
            ],
            "name": "clientApproveWork",
            "outputs": [],
            "stateMutability": "nonpayable",
            "type": "function"
        },
        {
            "inputs": [
                {
                    "internalType": "address",
                    "name": "",
                    "type": "address"
                }
            ],
            "name": "clientToContractId",
            "outputs": [
                {
                    "internalType": "uint256",
                    "name": "",
                    "type": "uint256"
                }
            ],
            "stateMutability": "view",
            "type": "function"
        },
        {
            "inputs": [
                {
                    "internalType": "uint256",
                    "name": "",
                    "type": "uint256"
                }
            ],
            "name": "contracts",
            "outputs": [
                {
                    "components": [
                        {
                            "internalType": "address payable",
                            "name": "addr",
                            "type": "address"
                        },
                        {
                            "internalType": "enum Freelancer.Vote",
                            "name": "vote",
                            "type": "uint8"
                        }
                    ],
                    "internalType": "struct Freelancer.Entity",
                    "name": "freelancer",
                    "type": "tuple"
                },
                {
                    "components": [
                        {
                            "internalType": "address payable",
                            "name": "addr",
                            "type": "address"
                        },
                        {
                            "internalType": "enum Freelancer.Vote",
                            "name": "vote",
                            "type": "uint8"
                        }
                    ],
                    "internalType": "struct Freelancer.Entity",
                    "name": "client",
                    "type": "tuple"
                },
                {
                    "internalType": "string",
                    "name": "description",
                    "type": "string"
                },
                {
                    "internalType": "uint256",
                    "name": "value",
                    "type": "uint256"
                },
                {
                    "internalType": "enum Freelancer.Status",
                    "name": "status",
                    "type": "uint8"
                }
            ],
            "stateMutability": "view",
            "type": "function"
        },
        {
            "inputs": [
                {
                    "internalType": "uint256",
                    "name": "_id",
                    "type": "uint256"
                },
                {
                    "internalType": "enum Freelancer.Vote",
                    "name": "vote",
                    "type": "uint8"
                }
            ],
            "name": "freelancerApproveWork",
            "outputs": [],
            "stateMutability": "nonpayable",
            "type": "function"
        },
        {
            "inputs": [
                {
                    "internalType": "address",
                    "name": "",
                    "type": "address"
                }
            ],
            "name": "freelanderToContractId",
            "outputs": [
                {
                    "internalType": "uint256",
                    "name": "",
                    "type": "uint256"
                }
            ],
            "stateMutability": "view",
            "type": "function"
        },
        {
            "inputs": [
                {
                    "internalType": "string",
                    "name": "_description",
                    "type": "string"
                },
                {
                    "internalType": "uint256",
                    "name": "_value",
                    "type": "uint256"
                },
                {
                    "internalType": "address payable",
                    "name": "_freelancer",
                    "type": "address"
                }
            ],
            "name": "fundWork",
            "outputs": [],
            "stateMutability": "payable",
            "type": "function"
        }
    ],
    "bytecode": "608060405234801561001057600080fd5b5060008055610f81806100246000396000f3fe6080604052600436106100555760003560e01c806341b194d81461005a578063474da79a1461007c5780635b14d906146100b6578063a3aa010d146100d6578063b3d8487d14610111578063caac51ba1461013e575b600080fd5b34801561006657600080fd5b5061007a610075366004610c93565b610151565b005b34801561008857600080fd5b5061009c610097366004610c7a565b6104b6565b6040516100ad959493929190610d32565b60405180910390f35b3480156100c257600080fd5b5061007a6100d1366004610c93565b61060d565b3480156100e257600080fd5b506101036100f1366004610b8b565b60026020526000908152604090205481565b6040519081526020016100ad565b34801561011d57600080fd5b5061010361012c366004610b8b565b60036020526000908152604090205481565b61007a61014c366004610baf565b6108dc565b6000828152600160208190526040909120015482906001600160a01b0316331461017a57600080fd5b8260008060008381526001602081905260409091206004015460ff16908111156101a6576101a6610f07565b146101b057600080fd5b600085815260016020526040808220815160e0810190925280546001600160a01b03811660a084019081528391839060c0840190600160a01b900460ff1660028111156101ff576101ff610f07565b600281111561021057610210610f07565b9052508152604080518082019091526001830180546001600160a01b0381168352602093840193830190600160a01b900460ff16600281111561025557610255610f07565b600281111561026657610266610f07565b81525050815260200160028201805461027e90610ea3565b80601f01602080910402602001604051908101604052809291908181526020018280546102aa90610ea3565b80156102f75780601f106102cc576101008083540402835291602001916102f7565b820191906000526020600020905b8154815290600101906020018083116102da57829003601f168201915b505050918352505060038201546020820152600482015460409091019060ff16600181111561032857610328610f07565b600181111561033957610339610f07565b9052506020808201519192500185600281111561035857610358610f07565b9081600281111561036b5761036b610f07565b9052506000816020015160200151600281111561038a5761038a610f07565b14156103fd5780515160608201516040516001600160a01b039092169181156108fc0291906000818181858888f193505050501580156103ce573d6000803e3d6000fd5b506040517f3c68eb814466095d6413c3d54053314f3612010356401ad9ab12567846d9625490600090a16104ae565b6001816020015160200151600281111561041957610419610f07565b14801561043d575060015b815160200151600281111561043b5761043b610f07565b145b156104ae5760208101515160608201516040516001600160a01b039092169181156108fc0291906000818181858888f19350505050158015610483573d6000803e3d6000fd5b506040517f3c68eb814466095d6413c3d54053314f3612010356401ad9ab12567846d9625490600090a15b505050505050565b600160209081526000918252604091829020825180840190935280546001600160a01b0381168452909291839190830190600160a01b900460ff16600281111561050257610502610f07565b600281111561051357610513610f07565b905250604080518082019091526001830180546001600160a01b03811683529293926020830190600160a01b900460ff16600281111561055557610555610f07565b600281111561056657610566610f07565b815250509080600201805461057a90610ea3565b80601f01602080910402602001604051908101604052809291908181526020018280546105a690610ea3565b80156105f35780601f106105c8576101008083540402835291602001916105f3565b820191906000526020600020905b8154815290600101906020018083116105d657829003601f168201915b50505050600383015460049093015491929160ff16905085565b60008281526001602052604090205482906001600160a01b0316331461063257600080fd5b8260008060008381526001602081905260409091206004015460ff169081111561065e5761065e610f07565b1461066857600080fd5b600085815260016020526040808220815160e0810190925280546001600160a01b03811660a084019081528391839060c0840190600160a01b900460ff1660028111156106b7576106b7610f07565b60028111156106c8576106c8610f07565b9052508152604080518082019091526001830180546001600160a01b0381168352602093840193830190600160a01b900460ff16600281111561070d5761070d610f07565b600281111561071e5761071e610f07565b81525050815260200160028201805461073690610ea3565b80601f016020809104026020016040519081016040528092919081815260200182805461076290610ea3565b80156107af5780601f10610784576101008083540402835291602001916107af565b820191906000526020600020905b81548152906001019060200180831161079257829003601f168201915b505050918352505060038201546020820152600482015460409091019060ff1660018111156107e0576107e0610f07565b60018111156107f1576107f1610f07565b9052506020808201519192500185600281111561081057610810610f07565b9081600281111561082357610823610f07565b905250805160200185600281111561083d5761083d610f07565b9081600281111561085057610850610f07565b9052506000816020015160200151600281111561086f5761086f610f07565b14801561089257506000815160200151600281111561089057610890610f07565b145b156108d55780515160608201516040516001600160a01b039092169181156108fc0291906000818181858888f193505050501580156103ce573d6000803e3d6000fd5b6001610424565b81348181146108ea57600080fd5b6040805180820182526001600160a01b0385168152600260208083018290528351808501855233815280820192909252835160a08101855283815290810182905292830188905260608301879052909160808101600090526000805481526001602090815260409091208251805182546001600160a01b031981166001600160a01b03909216918217845593820151929391928492909183916001600160a81b03191617600160a01b8360028111156109a5576109a5610f07565b0217905550505060208281015180516001840180546001600160a01b031981166001600160a01b03909316928317825593830151929390929183916001600160a81b03191617600160a01b836002811115610a0257610a02610f07565b0217905550505060408201518051610a24916002840191602090910190610ae2565b5060608201516003820155608082015160048201805460ff191660018381811115610a5157610a51610f07565b021790555050600080546001600160a01b038816825260026020908152604080842083905533845260038252808420839055918352600190529081902090517ffbd93fcf130a5db3c807125e2e386579d290cc0386024ee51aacbd9e6ca348689250610abd9190610dbc565b60405180910390a1600080549080610ad483610ede565b919050555050505050505050565b828054610aee90610ea3565b90600052602060002090601f016020900481019282610b105760008555610b56565b82601f10610b2957805160ff1916838001178555610b56565b82800160010185558215610b56579182015b82811115610b56578251825591602001919060010190610b3b565b50610b62929150610b66565b5090565b5b80821115610b625760008155600101610b67565b8035610b8681610f33565b919050565b600060208284031215610b9d57600080fd5b8135610ba881610f33565b9392505050565b600080600060608486031215610bc457600080fd5b833567ffffffffffffffff80821115610bdc57600080fd5b818601915086601f830112610bf057600080fd5b813581811115610c0257610c02610f1d565b604051601f8201601f19908116603f01168101908382118183101715610c2a57610c2a610f1d565b81604052828152896020848701011115610c4357600080fd5b82602086016020830137600060208483010152809750505050505060208401359150610c7160408501610b7b565b90509250925092565b600060208284031215610c8c57600080fd5b5035919050565b60008060408385031215610ca657600080fd5b82359150602083013560038110610cbc57600080fd5b809150509250929050565b60028110610cd757610cd7610f07565b9052565b60038110610cd757610cd7610f07565b80516001600160a01b0316825260208082015190610d0b90840182610cdb565b505050565b80546001600160a01b0381168352610d0b6020840160a083901c60ff16610cdb565b610d3c8187610ceb565b610d496040820186610ceb565b60e06080820152600084518060e084015260005b81811015610d7b576020818801810151610100868401015201610d5d565b81811115610d8e57600061010083860101525b5060a08301859052601f01601f19168201610100019050610db260c0830184610cc7565b9695505050505050565b60006020808352610dcf81840185610d10565b6001610de060608501828701610d10565b60e060a085015260028501805460009080841c84821680610e0257607f821691505b868210811415610e2057634e487b7160e01b84526022600452602484fd5b61010089018290526101208901818015610e415760018114610e5257610e7d565b60ff19851682528882019550610e7d565b60008781526020902060005b85811015610e7757815484820152908901908a01610e5e565b83019650505b50505050600388015460c088015250600487015460ff169350610db260e0870185610cc7565b600181811c90821680610eb757607f821691505b60208210811415610ed857634e487b7160e01b600052602260045260246000fd5b50919050565b6000600019821415610f0057634e487b7160e01b600052601160045260246000fd5b5060010190565b634e487b7160e01b600052602160045260246000fd5b634e487b7160e01b600052604160045260246000fd5b6001600160a01b0381168114610f4857600080fd5b5056fea264697066735822122071c66a608882f7de8c29a6bf775aa339ce9035b4b75e092846cc139419cd674064736f6c63430008070033",
    "sourcePath": "/Users/dsinghvi/Documents/crypto-contractor/contracts/Freelancer.sol",
    "compiler": {
        "name": "solc",
        "version": "0.8.7+commit.e28d00a7"
    },
    "functionHashes": {
        "clientApproveWork(uint256,uint8)": "41b194d8",
        "clientToContractId(address)": "b3d8487d",
        "contracts(uint256)": "474da79a",
        "freelancerApproveWork(uint256,uint8)": "5b14d906",
        "freelanderToContractId(address)": "a3aa010d",
        "fundWork(string,uint256,address)": "caac51ba"
    },
    "gasEstimates": {
        "creation": {
            "codeDepositCost": "793800",
            "executionCost": "5837",
            "totalCost": "799637"
        },
        "external": {
            "clientApproveWork(uint256,uint8)": "infinite",
            "clientToContractId(address)": "2579",
            "contracts(uint256)": "infinite",
            "freelancerApproveWork(uint256,uint8)": "infinite",
            "freelanderToContractId(address)": "2557",
            "fundWork(string,uint256,address)": "infinite"
        }
    }
}